{
  "_format": "hh-sol-artifact-1",
  "contractName": "Marketplace",
  "sourceName": "contracts/Marketplace+ReentrancyGuard.sol",
  "abi": [
    {
      "inputs": [
        {
          "internalType": "uint256",
          "name": "token_id",
          "type": "uint256"
        },
        {
          "internalType": "uint256",
          "name": "price",
          "type": "uint256"
        }
      ],
      "name": "addListing",
      "outputs": [],
      "stateMutability": "nonpayable",
      "type": "function"
    },
    {
      "inputs": [
        {
          "internalType": "uint256",
          "name": "listing_id",
          "type": "uint256"
        }
      ],
      "name": "buy",
      "outputs": [],
      "stateMutability": "nonpayable",
      "type": "function"
    },
    {
      "inputs": [
        {
          "internalType": "uint256",
          "name": "index",
          "type": "uint256"
        }
      ],
      "name": "getActiveListings",
      "outputs": [
        {
          "internalType": "uint256",
          "name": "",
          "type": "uint256"
        }
      ],
      "stateMutability": "view",
      "type": "function"
    },
    {
      "inputs": [],
      "name": "getActiveListingsCount",
      "outputs": [
        {
          "internalType": "uint256",
          "name": "",
          "type": "uint256"
        }
      ],
      "stateMutability": "view",
      "type": "function"
    },
    {
      "inputs": [
        {
          "internalType": "address",
          "name": "owner",
          "type": "address"
        },
        {
          "internalType": "uint256",
          "name": "index",
          "type": "uint256"
        }
      ],
      "name": "getListingsByOwner",
      "outputs": [
        {
          "internalType": "uint256",
          "name": "",
          "type": "uint256"
        }
      ],
      "stateMutability": "view",
      "type": "function"
    },
    {
      "inputs": [
        {
          "internalType": "address",
          "name": "owner",
          "type": "address"
        }
      ],
      "name": "getListingsByOwnerCount",
      "outputs": [
        {
          "internalType": "uint256",
          "name": "",
          "type": "uint256"
        }
      ],
      "stateMutability": "view",
      "type": "function"
    },
    {
      "inputs": [],
      "name": "listing_count",
      "outputs": [
        {
          "internalType": "uint256",
          "name": "",
          "type": "uint256"
        }
      ],
      "stateMutability": "view",
      "type": "function"
    },
    {
      "inputs": [
        {
          "internalType": "uint256",
          "name": "",
          "type": "uint256"
        }
      ],
      "name": "listings",
      "outputs": [
        {
          "internalType": "address",
          "name": "owner",
          "type": "address"
        },
        {
          "internalType": "bool",
          "name": "is_active",
          "type": "bool"
        },
        {
          "internalType": "uint256",
          "name": "token_id",
          "type": "uint256"
        },
        {
          "internalType": "uint256",
          "name": "price",
          "type": "uint256"
        }
      ],
      "stateMutability": "view",
      "type": "function"
    },
    {
      "inputs": [
        {
          "internalType": "uint256",
          "name": "listing_id",
          "type": "uint256"
        }
      ],
      "name": "removeListing",
      "outputs": [],
      "stateMutability": "nonpayable",
      "type": "function"
    }
  ],
  "bytecode": "0x60806040526000600155731221f89b11e36d28595485372269d6f1fd576fba600360006101000a81548173ffffffffffffffffffffffffffffffffffffffff021916908373ffffffffffffffffffffffffffffffffffffffff16021790555034801561006a57600080fd5b506001600081905550610f34806100826000396000f3fe608060405234801561001057600080fd5b50600436106100935760003560e01c8063836cf6e911610066578063836cf6e914610120578063a4dae2861461013c578063d96a094a1461016c578063de74e57b14610188578063e6987501146101bb57610093565b8063479ad4c3146100985780635dcd4015146100b45780637b55927c146100d25780637c499bfa146100f0575b600080fd5b6100b260048036038101906100ad9190610ad3565b6101eb565b005b6100bc610421565b6040516100c99190610b0f565b60405180910390f35b6100da610427565b6040516100e79190610b0f565b60405180910390f35b61010a60048036038101906101059190610b88565b61048b565b6040516101179190610b0f565b60405180910390f35b61013a60048036038101906101359190610bc8565b610573565b005b61015660048036038101906101519190610c08565b610746565b6040516101639190610b0f565b60405180910390f35b61018660048036038101906101819190610ad3565b610819565b005b6101a2600480360381019061019d9190610ad3565b6109ab565b6040516101b29493929190610c5f565b60405180910390f35b6101d560048036038101906101d09190610ad3565b610a08565b6040516101e29190610b0f565b60405180910390f35b60026000541415610231576040517f08c379a000000000000000000000000000000000000000000000000000000000815260040161022890610d01565b60405180910390fd5b60026000819055503373ffffffffffffffffffffffffffffffffffffffff166002600083815260200190815260200160002060000160009054906101000a900473ffffffffffffffffffffffffffffffffffffffff1673ffffffffffffffffffffffffffffffffffffffff16146102dd576040517f08c379a00000000000000000000000000000000000000000000000000000000081526004016102d490610d6d565b60405180910390fd5b6002600082815260200190815260200160002060000160149054906101000a900460ff16610340576040517f08c379a000000000000000000000000000000000000000000000000000000000815260040161033790610dd9565b60405180910390fd5b60006002600083815260200190815260200160002060000160146101000a81548160ff021916908315150217905550600360009054906101000a900473ffffffffffffffffffffffffffffffffffffffff1673ffffffffffffffffffffffffffffffffffffffff166323b872dd303360026000868152602001908152602001600020600101546040518463ffffffff1660e01b81526004016103e493929190610df9565b600060405180830381600087803b1580156103fe57600080fd5b505af1158015610412573d6000803e3d6000fd5b50505050600160008190555050565b60015481565b60008060005b600154811015610483576002600082815260200190815260200160002060000160149054906101000a900460ff16156104705760018261046d9190610e5f565b91505b808061047b90610eb5565b91505061042d565b508091505090565b60008060005b600154811015610566576002600082815260200190815260200160002060000160149054906101000a900460ff16801561052c57508473ffffffffffffffffffffffffffffffffffffffff166002600083815260200190815260200160002060000160009054906101000a900473ffffffffffffffffffffffffffffffffffffffff1673ffffffffffffffffffffffffffffffffffffffff16145b15610553578184141561054357809250505061056d565b6001826105509190610e5f565b91505b808061055e90610eb5565b915050610491565b5060009150505b92915050565b600260005414156105b9576040517f08c379a00000000000000000000000000000000000000000000000000000000081526004016105b090610d01565b60405180910390fd5b600260008190555060405180608001604052803373ffffffffffffffffffffffffffffffffffffffff1681526020016001151581526020018381526020018281525060026000600154815260200190815260200160002060008201518160000160006101000a81548173ffffffffffffffffffffffffffffffffffffffff021916908373ffffffffffffffffffffffffffffffffffffffff16021790555060208201518160000160146101000a81548160ff02191690831515021790555060408201518160010155606082015181600201559050506106a360018054610a8290919063ffffffff16565b600181905550600360009054906101000a900473ffffffffffffffffffffffffffffffffffffffff1673ffffffffffffffffffffffffffffffffffffffff166323b872dd3330856040518463ffffffff1660e01b815260040161070893929190610df9565b600060405180830381600087803b15801561072257600080fd5b505af1158015610736573d6000803e3d6000fd5b5050505060016000819055505050565b60008060005b60015481101561080f576002600082815260200190815260200160002060000160149054906101000a900460ff1680156107e757508373ffffffffffffffffffffffffffffffffffffffff166002600083815260200190815260200160002060000160009054906101000a900473ffffffffffffffffffffffffffffffffffffffff1673ffffffffffffffffffffffffffffffffffffffff16145b156107fc576001826107f99190610e5f565b91505b808061080790610eb5565b91505061074c565b5080915050919050565b6002600054141561085f576040517f08c379a000000000000000000000000000000000000000000000000000000000815260040161085690610d01565b60405180910390fd5b60026000819055506002600082815260200190815260200160002060000160149054906101000a900460ff166108ca576040517f08c379a00000000000000000000000000000000000000000000000000000000081526004016108c190610dd9565b60405180910390fd5b60006002600083815260200190815260200160002060000160146101000a81548160ff021916908315150217905550600360009054906101000a900473ffffffffffffffffffffffffffffffffffffffff1673ffffffffffffffffffffffffffffffffffffffff166323b872dd303360026000868152602001908152602001600020600101546040518463ffffffff1660e01b815260040161096e93929190610df9565b600060405180830381600087803b15801561098857600080fd5b505af115801561099c573d6000803e3d6000fd5b50505050600160008190555050565b60026020528060005260406000206000915090508060000160009054906101000a900473ffffffffffffffffffffffffffffffffffffffff16908060000160149054906101000a900460ff16908060010154908060020154905084565b60008060005b600154811015610a76576002600082815260200190815260200160002060000160149054906101000a900460ff1615610a635781841415610a53578092505050610a7d565b600182610a609190610e5f565b91505b8080610a6e90610eb5565b915050610a0e565b5060009150505b919050565b60008183610a909190610e5f565b905092915050565b600080fd5b6000819050919050565b610ab081610a9d565b8114610abb57600080fd5b50565b600081359050610acd81610aa7565b92915050565b600060208284031215610ae957610ae8610a98565b5b6000610af784828501610abe565b91505092915050565b610b0981610a9d565b82525050565b6000602082019050610b246000830184610b00565b92915050565b600073ffffffffffffffffffffffffffffffffffffffff82169050919050565b6000610b5582610b2a565b9050919050565b610b6581610b4a565b8114610b7057600080fd5b50565b600081359050610b8281610b5c565b92915050565b60008060408385031215610b9f57610b9e610a98565b5b6000610bad85828601610b73565b9250506020610bbe85828601610abe565b9150509250929050565b60008060408385031215610bdf57610bde610a98565b5b6000610bed85828601610abe565b9250506020610bfe85828601610abe565b9150509250929050565b600060208284031215610c1e57610c1d610a98565b5b6000610c2c84828501610b73565b91505092915050565b610c3e81610b4a565b82525050565b60008115159050919050565b610c5981610c44565b82525050565b6000608082019050610c746000830187610c35565b610c816020830186610c50565b610c8e6040830185610b00565b610c9b6060830184610b00565b95945050505050565b600082825260208201905092915050565b7f5265656e7472616e637947756172643a207265656e7472616e742063616c6c00600082015250565b6000610ceb601f83610ca4565b9150610cf682610cb5565b602082019050919050565b60006020820190508181036000830152610d1a81610cde565b9050919050565b7f4d757374206265206f776e657200000000000000000000000000000000000000600082015250565b6000610d57600d83610ca4565b9150610d6282610d21565b602082019050919050565b60006020820190508181036000830152610d8681610d4a565b9050919050565b7f4d75737420626520616374697665000000000000000000000000000000000000600082015250565b6000610dc3600e83610ca4565b9150610dce82610d8d565b602082019050919050565b60006020820190508181036000830152610df281610db6565b9050919050565b6000606082019050610e0e6000830186610c35565b610e1b6020830185610c35565b610e286040830184610b00565b949350505050565b7f4e487b7100000000000000000000000000000000000000000000000000000000600052601160045260246000fd5b6000610e6a82610a9d565b9150610e7583610a9d565b9250827fffffffffffffffffffffffffffffffffffffffffffffffffffffffffffffffff03821115610eaa57610ea9610e30565b5b828201905092915050565b6000610ec082610a9d565b91507fffffffffffffffffffffffffffffffffffffffffffffffffffffffffffffffff821415610ef357610ef2610e30565b5b60018201905091905056fea2646970667358221220eb8aa1f94f206a5df515c2e609778bcede11eda9fda2f192f1b09f26cdda6e1864736f6c634300080b0033",
  "linkReferences": {},
  "deployedLinkReferences": {}
}