{
  "_format": "hh-sol-artifact-1",
  "contractName": "HoloNFT",
  "sourceName": "contracts/HoloNFT.sol",
  "abi": [
    {
      "inputs": [],
      "stateMutability": "nonpayable",
      "type": "constructor"
    },
    {
      "anonymous": false,
      "inputs": [
        {
          "indexed": true,
          "internalType": "address",
          "name": "owner",
          "type": "address"
        },
        {
          "indexed": true,
          "internalType": "address",
          "name": "approved",
          "type": "address"
        },
        {
          "indexed": true,
          "internalType": "uint256",
          "name": "tokenId",
          "type": "uint256"
        }
      ],
      "name": "Approval",
      "type": "event"
    },
    {
      "anonymous": false,
      "inputs": [
        {
          "indexed": true,
          "internalType": "address",
          "name": "owner",
          "type": "address"
        },
        {
          "indexed": true,
          "internalType": "address",
          "name": "operator",
          "type": "address"
        },
        {
          "indexed": false,
          "internalType": "bool",
          "name": "approved",
          "type": "bool"
        }
      ],
      "name": "ApprovalForAll",
      "type": "event"
    },
    {
      "anonymous": false,
      "inputs": [
        {
          "indexed": true,
          "internalType": "address",
          "name": "previousOwner",
          "type": "address"
        },
        {
          "indexed": true,
          "internalType": "address",
          "name": "newOwner",
          "type": "address"
        }
      ],
      "name": "OwnershipTransferred",
      "type": "event"
    },
    {
      "anonymous": false,
      "inputs": [
        {
          "indexed": true,
          "internalType": "address",
          "name": "from",
          "type": "address"
        },
        {
          "indexed": true,
          "internalType": "address",
          "name": "to",
          "type": "address"
        },
        {
          "indexed": true,
          "internalType": "uint256",
          "name": "tokenId",
          "type": "uint256"
        }
      ],
      "name": "Transfer",
      "type": "event"
    },
    {
      "inputs": [],
      "name": "PRICE",
      "outputs": [
        {
          "internalType": "uint256",
          "name": "",
          "type": "uint256"
        }
      ],
      "stateMutability": "view",
      "type": "function"
    },
    {
      "inputs": [
        {
          "internalType": "address",
          "name": "to",
          "type": "address"
        },
        {
          "internalType": "uint256",
          "name": "tokenId",
          "type": "uint256"
        }
      ],
      "name": "approve",
      "outputs": [],
      "stateMutability": "nonpayable",
      "type": "function"
    },
    {
      "inputs": [
        {
          "internalType": "address",
          "name": "owner",
          "type": "address"
        }
      ],
      "name": "balanceOf",
      "outputs": [
        {
          "internalType": "uint256",
          "name": "",
          "type": "uint256"
        }
      ],
      "stateMutability": "view",
      "type": "function"
    },
    {
      "inputs": [
        {
          "internalType": "uint256",
          "name": "tokenId",
          "type": "uint256"
        }
      ],
      "name": "getApproved",
      "outputs": [
        {
          "internalType": "address",
          "name": "",
          "type": "address"
        }
      ],
      "stateMutability": "view",
      "type": "function"
    },
    {
      "inputs": [
        {
          "internalType": "address",
          "name": "owner",
          "type": "address"
        },
        {
          "internalType": "address",
          "name": "operator",
          "type": "address"
        }
      ],
      "name": "isApprovedForAll",
      "outputs": [
        {
          "internalType": "bool",
          "name": "",
          "type": "bool"
        }
      ],
      "stateMutability": "view",
      "type": "function"
    },
    {
      "inputs": [
        {
          "internalType": "string",
          "name": "URI",
          "type": "string"
        }
      ],
      "name": "mintNFT",
      "outputs": [],
      "stateMutability": "payable",
      "type": "function"
    },
    {
      "inputs": [],
      "name": "name",
      "outputs": [
        {
          "internalType": "string",
          "name": "",
          "type": "string"
        }
      ],
      "stateMutability": "view",
      "type": "function"
    },
    {
      "inputs": [],
      "name": "owner",
      "outputs": [
        {
          "internalType": "address",
          "name": "",
          "type": "address"
        }
      ],
      "stateMutability": "view",
      "type": "function"
    },
    {
      "inputs": [
        {
          "internalType": "uint256",
          "name": "tokenId",
          "type": "uint256"
        }
      ],
      "name": "ownerOf",
      "outputs": [
        {
          "internalType": "address",
          "name": "",
          "type": "address"
        }
      ],
      "stateMutability": "view",
      "type": "function"
    },
    {
      "inputs": [],
      "name": "renounceOwnership",
      "outputs": [],
      "stateMutability": "nonpayable",
      "type": "function"
    },
    {
      "inputs": [
        {
          "internalType": "string",
          "name": "tokenURI",
          "type": "string"
        }
      ],
      "name": "reserveNFT",
      "outputs": [],
      "stateMutability": "nonpayable",
      "type": "function"
    },
    {
      "inputs": [
        {
          "internalType": "address",
          "name": "from",
          "type": "address"
        },
        {
          "internalType": "address",
          "name": "to",
          "type": "address"
        },
        {
          "internalType": "uint256",
          "name": "tokenId",
          "type": "uint256"
        }
      ],
      "name": "safeTransferFrom",
      "outputs": [],
      "stateMutability": "nonpayable",
      "type": "function"
    },
    {
      "inputs": [
        {
          "internalType": "address",
          "name": "from",
          "type": "address"
        },
        {
          "internalType": "address",
          "name": "to",
          "type": "address"
        },
        {
          "internalType": "uint256",
          "name": "tokenId",
          "type": "uint256"
        },
        {
          "internalType": "bytes",
          "name": "_data",
          "type": "bytes"
        }
      ],
      "name": "safeTransferFrom",
      "outputs": [],
      "stateMutability": "nonpayable",
      "type": "function"
    },
    {
      "inputs": [
        {
          "internalType": "address",
          "name": "operator",
          "type": "address"
        },
        {
          "internalType": "bool",
          "name": "approved",
          "type": "bool"
        }
      ],
      "name": "setApprovalForAll",
      "outputs": [],
      "stateMutability": "nonpayable",
      "type": "function"
    },
    {
      "inputs": [
        {
          "internalType": "bytes4",
          "name": "interfaceId",
          "type": "bytes4"
        }
      ],
      "name": "supportsInterface",
      "outputs": [
        {
          "internalType": "bool",
          "name": "",
          "type": "bool"
        }
      ],
      "stateMutability": "view",
      "type": "function"
    },
    {
      "inputs": [],
      "name": "symbol",
      "outputs": [
        {
          "internalType": "string",
          "name": "",
          "type": "string"
        }
      ],
      "stateMutability": "view",
      "type": "function"
    },
    {
      "inputs": [
        {
          "internalType": "uint256",
          "name": "tokenId",
          "type": "uint256"
        }
      ],
      "name": "tokenURI",
      "outputs": [
        {
          "internalType": "string",
          "name": "",
          "type": "string"
        }
      ],
      "stateMutability": "view",
      "type": "function"
    },
    {
      "inputs": [
        {
          "internalType": "address",
          "name": "from",
          "type": "address"
        },
        {
          "internalType": "address",
          "name": "to",
          "type": "address"
        },
        {
          "internalType": "uint256",
          "name": "tokenId",
          "type": "uint256"
        }
      ],
      "name": "transferFrom",
      "outputs": [],
      "stateMutability": "nonpayable",
      "type": "function"
    },
    {
      "inputs": [
        {
          "internalType": "address",
          "name": "newOwner",
          "type": "address"
        }
      ],
      "name": "transferOwnership",
      "outputs": [],
      "stateMutability": "nonpayable",
      "type": "function"
    },
    {
      "inputs": [],
      "name": "withdraw",
      "outputs": [],
      "stateMutability": "payable",
      "type": "function"
    }
  ],
  "bytecode": "0x60806040523480156200001157600080fd5b506040518060400160405280600781526020017f486f6c6f4e4654000000000000000000000000000000000000000000000000008152506040518060400160405280600481526020017f484e465400000000000000000000000000000000000000000000000000000000815250816000908051906020019062000096929190620001a6565b508060019080519060200190620000af929190620001a6565b505050620000d2620000c6620000d860201b60201c565b620000e060201b60201c565b620002bb565b600033905090565b6000600760009054906101000a900473ffffffffffffffffffffffffffffffffffffffff16905081600760006101000a81548173ffffffffffffffffffffffffffffffffffffffff021916908373ffffffffffffffffffffffffffffffffffffffff1602179055508173ffffffffffffffffffffffffffffffffffffffff168173ffffffffffffffffffffffffffffffffffffffff167f8be0079c531659141344cd1fd0a4f28419497f9722a3daafe3b4186f6b6457e060405160405180910390a35050565b828054620001b49062000285565b90600052602060002090601f016020900481019282620001d8576000855562000224565b82601f10620001f357805160ff191683800117855562000224565b8280016001018555821562000224579182015b828111156200022357825182559160200191906001019062000206565b5b50905062000233919062000237565b5090565b5b808211156200025257600081600090555060010162000238565b5090565b7f4e487b7100000000000000000000000000000000000000000000000000000000600052602260045260246000fd5b600060028204905060018216806200029e57607f821691505b60208210811415620002b557620002b462000256565b5b50919050565b61352e80620002cb6000396000f3fe60806040526004361061011f5760003560e01c80638d859f3e116100a0578063c87b56dd11610064578063c87b56dd146103b2578063ce847564146103ef578063e985e9c514610418578063f2fde38b14610455578063fb37e8831461047e5761011f565b80638d859f3e146102df5780638da5cb5b1461030a57806395d89b4114610335578063a22cb46514610360578063b88d4fde146103895761011f565b80633ccfd60b116100e75780633ccfd60b1461021b57806342842e0e146102255780636352211e1461024e57806370a082311461028b578063715018a6146102c85761011f565b806301ffc9a71461012457806306fdde0314610161578063081812fc1461018c578063095ea7b3146101c957806323b872dd146101f2575b600080fd5b34801561013057600080fd5b5061014b60048036038101906101469190611ff5565b61049a565b604051610158919061203d565b60405180910390f35b34801561016d57600080fd5b5061017661057c565b60405161018391906120f1565b60405180910390f35b34801561019857600080fd5b506101b360048036038101906101ae9190612149565b61060e565b6040516101c091906121b7565b60405180910390f35b3480156101d557600080fd5b506101f060048036038101906101eb91906121fe565b610693565b005b3480156101fe57600080fd5b506102196004803603810190610214919061223e565b6107ab565b005b61022361080b565b005b34801561023157600080fd5b5061024c6004803603810190610247919061223e565b61097f565b005b34801561025a57600080fd5b5061027560048036038101906102709190612149565b61099f565b60405161028291906121b7565b60405180910390f35b34801561029757600080fd5b506102b260048036038101906102ad9190612291565b610a51565b6040516102bf91906122cd565b60405180910390f35b3480156102d457600080fd5b506102dd610b09565b005b3480156102eb57600080fd5b506102f4610b91565b60405161030191906122cd565b60405180910390f35b34801561031657600080fd5b5061031f610b9c565b60405161032c91906121b7565b60405180910390f35b34801561034157600080fd5b5061034a610bc6565b60405161035791906120f1565b60405180910390f35b34801561036c57600080fd5b5061038760048036038101906103829190612314565b610c58565b005b34801561039557600080fd5b506103b060048036038101906103ab9190612489565b610c6e565b005b3480156103be57600080fd5b506103d960048036038101906103d49190612149565b610cd0565b6040516103e691906120f1565b60405180910390f35b3480156103fb57600080fd5b50610416600480360381019061041191906125ad565b610e22565b005b34801561042457600080fd5b5061043f600480360381019061043a91906125f6565b610eaa565b60405161044c919061203d565b60405180910390f35b34801561046157600080fd5b5061047c60048036038101906104779190612291565b610f3e565b005b610498600480360381019061049391906125ad565b611036565b005b60007f80ac58cd000000000000000000000000000000000000000000000000000000007bffffffffffffffffffffffffffffffffffffffffffffffffffffffff1916827bffffffffffffffffffffffffffffffffffffffffffffffffffffffff1916148061056557507f5b5e139f000000000000000000000000000000000000000000000000000000007bffffffffffffffffffffffffffffffffffffffffffffffffffffffff1916827bffffffffffffffffffffffffffffffffffffffffffffffffffffffff1916145b8061057557506105748261108c565b5b9050919050565b60606000805461058b90612665565b80601f01602080910402602001604051908101604052809291908181526020018280546105b790612665565b80156106045780601f106105d957610100808354040283529160200191610604565b820191906000526020600020905b8154815290600101906020018083116105e757829003601f168201915b5050505050905090565b6000610619826110f6565b610658576040517f08c379a000000000000000000000000000000000000000000000000000000000815260040161064f90612709565b60405180910390fd5b6004600083815260200190815260200160002060009054906101000a900473ffffffffffffffffffffffffffffffffffffffff169050919050565b600061069e8261099f565b90508073ffffffffffffffffffffffffffffffffffffffff168373ffffffffffffffffffffffffffffffffffffffff16141561070f576040517f08c379a00000000000000000000000000000000000000000000000000000000081526004016107069061279b565b60405180910390fd5b8073ffffffffffffffffffffffffffffffffffffffff1661072e611162565b73ffffffffffffffffffffffffffffffffffffffff16148061075d575061075c81610757611162565b610eaa565b5b61079c576040517f08c379a00000000000000000000000000000000000000000000000000000000081526004016107939061282d565b60405180910390fd5b6107a6838361116a565b505050565b6107bc6107b6611162565b82611223565b6107fb576040517f08c379a00000000000000000000000000000000000000000000000000000000081526004016107f2906128bf565b60405180910390fd5b610806838383611301565b505050565b610813611162565b73ffffffffffffffffffffffffffffffffffffffff16610831610b9c565b73ffffffffffffffffffffffffffffffffffffffff1614610887576040517f08c379a000000000000000000000000000000000000000000000000000000000815260040161087e9061292b565b60405180910390fd5b6000479050600081116108cf576040517f08c379a00000000000000000000000000000000000000000000000000000000081526004016108c690612997565b60405180910390fd5b60003373ffffffffffffffffffffffffffffffffffffffff16826040516108f5906129e8565b60006040518083038185875af1925050503d8060008114610932576040519150601f19603f3d011682016040523d82523d6000602084013e610937565b606091505b505090508061097b576040517f08c379a000000000000000000000000000000000000000000000000000000000815260040161097290612a49565b60405180910390fd5b5050565b61099a83838360405180602001604052806000815250610c6e565b505050565b6000806002600084815260200190815260200160002060009054906101000a900473ffffffffffffffffffffffffffffffffffffffff169050600073ffffffffffffffffffffffffffffffffffffffff168173ffffffffffffffffffffffffffffffffffffffff161415610a48576040517f08c379a0000000000000000000000000000000000000000000000000000000008152600401610a3f90612adb565b60405180910390fd5b80915050919050565b60008073ffffffffffffffffffffffffffffffffffffffff168273ffffffffffffffffffffffffffffffffffffffff161415610ac2576040517f08c379a0000000000000000000000000000000000000000000000000000000008152600401610ab990612b6d565b60405180910390fd5b600360008373ffffffffffffffffffffffffffffffffffffffff1673ffffffffffffffffffffffffffffffffffffffff168152602001908152602001600020549050919050565b610b11611162565b73ffffffffffffffffffffffffffffffffffffffff16610b2f610b9c565b73ffffffffffffffffffffffffffffffffffffffff1614610b85576040517f08c379a0000000000000000000000000000000000000000000000000000000008152600401610b7c9061292b565b60405180910390fd5b610b8f6000611568565b565b662386f26fc1000081565b6000600760009054906101000a900473ffffffffffffffffffffffffffffffffffffffff16905090565b606060018054610bd590612665565b80601f0160208091040260200160405190810160405280929190818152602001828054610c0190612665565b8015610c4e5780601f10610c2357610100808354040283529160200191610c4e565b820191906000526020600020905b815481529060010190602001808311610c3157829003601f168201915b5050505050905090565b610c6a610c63611162565b838361162e565b5050565b610c7f610c79611162565b83611223565b610cbe576040517f08c379a0000000000000000000000000000000000000000000000000000000008152600401610cb5906128bf565b60405180910390fd5b610cca8484848461179b565b50505050565b6060610cdb826110f6565b610d1a576040517f08c379a0000000000000000000000000000000000000000000000000000000008152600401610d1190612bff565b60405180910390fd5b6000600660008481526020019081526020016000208054610d3a90612665565b80601f0160208091040260200160405190810160405280929190818152602001828054610d6690612665565b8015610db35780601f10610d8857610100808354040283529160200191610db3565b820191906000526020600020905b815481529060010190602001808311610d9657829003601f168201915b505050505090506000610dc46117f7565b9050600081511415610dda578192505050610e1d565b600082511115610e0f578082604051602001610df7929190612c5b565b60405160208183030381529060405292505050610e1d565b610e188461180e565b925050505b919050565b610e2a611162565b73ffffffffffffffffffffffffffffffffffffffff16610e48610b9c565b73ffffffffffffffffffffffffffffffffffffffff1614610e9e576040517f08c379a0000000000000000000000000000000000000000000000000000000008152600401610e959061292b565b60405180910390fd5b610ea7816118b5565b50565b6000600560008473ffffffffffffffffffffffffffffffffffffffff1673ffffffffffffffffffffffffffffffffffffffff16815260200190815260200160002060008373ffffffffffffffffffffffffffffffffffffffff1673ffffffffffffffffffffffffffffffffffffffff16815260200190815260200160002060009054906101000a900460ff16905092915050565b610f46611162565b73ffffffffffffffffffffffffffffffffffffffff16610f64610b9c565b73ffffffffffffffffffffffffffffffffffffffff1614610fba576040517f08c379a0000000000000000000000000000000000000000000000000000000008152600401610fb19061292b565b60405180910390fd5b600073ffffffffffffffffffffffffffffffffffffffff168173ffffffffffffffffffffffffffffffffffffffff16141561102a576040517f08c379a000000000000000000000000000000000000000000000000000000000815260040161102190612cf1565b60405180910390fd5b61103381611568565b50565b662386f26fc10000341015611080576040517f08c379a000000000000000000000000000000000000000000000000000000000815260040161107790612d83565b60405180910390fd5b611089816118b5565b50565b60007f01ffc9a7000000000000000000000000000000000000000000000000000000007bffffffffffffffffffffffffffffffffffffffffffffffffffffffff1916827bffffffffffffffffffffffffffffffffffffffffffffffffffffffff1916149050919050565b60008073ffffffffffffffffffffffffffffffffffffffff166002600084815260200190815260200160002060009054906101000a900473ffffffffffffffffffffffffffffffffffffffff1673ffffffffffffffffffffffffffffffffffffffff1614159050919050565b600033905090565b816004600083815260200190815260200160002060006101000a81548173ffffffffffffffffffffffffffffffffffffffff021916908373ffffffffffffffffffffffffffffffffffffffff160217905550808273ffffffffffffffffffffffffffffffffffffffff166111dd8361099f565b73ffffffffffffffffffffffffffffffffffffffff167f8c5be1e5ebec7d5bd14f71427d1e84f3dd0314c0f7b2291e5b200ac8c7c3b92560405160405180910390a45050565b600061122e826110f6565b61126d576040517f08c379a000000000000000000000000000000000000000000000000000000000815260040161126490612e15565b60405180910390fd5b60006112788361099f565b90508073ffffffffffffffffffffffffffffffffffffffff168473ffffffffffffffffffffffffffffffffffffffff1614806112e757508373ffffffffffffffffffffffffffffffffffffffff166112cf8461060e565b73ffffffffffffffffffffffffffffffffffffffff16145b806112f857506112f78185610eaa565b5b91505092915050565b8273ffffffffffffffffffffffffffffffffffffffff166113218261099f565b73ffffffffffffffffffffffffffffffffffffffff1614611377576040517f08c379a000000000000000000000000000000000000000000000000000000000815260040161136e90612ea7565b60405180910390fd5b600073ffffffffffffffffffffffffffffffffffffffff168273ffffffffffffffffffffffffffffffffffffffff1614156113e7576040517f08c379a00000000000000000000000000000000000000000000000000000000081526004016113de90612f39565b60405180910390fd5b6113f28383836118e5565b6113fd60008261116a565b6001600360008573ffffffffffffffffffffffffffffffffffffffff1673ffffffffffffffffffffffffffffffffffffffff168152602001908152602001600020600082825461144d9190612f88565b925050819055506001600360008473ffffffffffffffffffffffffffffffffffffffff1673ffffffffffffffffffffffffffffffffffffffff16815260200190815260200160002060008282546114a49190612fbc565b92505081905550816002600083815260200190815260200160002060006101000a81548173ffffffffffffffffffffffffffffffffffffffff021916908373ffffffffffffffffffffffffffffffffffffffff160217905550808273ffffffffffffffffffffffffffffffffffffffff168473ffffffffffffffffffffffffffffffffffffffff167fddf252ad1be2c89b69c2b068fc378daa952ba7f163c4a11628f55a4df523b3ef60405160405180910390a46115638383836118ea565b505050565b6000600760009054906101000a900473ffffffffffffffffffffffffffffffffffffffff16905081600760006101000a81548173ffffffffffffffffffffffffffffffffffffffff021916908373ffffffffffffffffffffffffffffffffffffffff1602179055508173ffffffffffffffffffffffffffffffffffffffff168173ffffffffffffffffffffffffffffffffffffffff167f8be0079c531659141344cd1fd0a4f28419497f9722a3daafe3b4186f6b6457e060405160405180910390a35050565b8173ffffffffffffffffffffffffffffffffffffffff168373ffffffffffffffffffffffffffffffffffffffff16141561169d576040517f08c379a00000000000000000000000000000000000000000000000000000000081526004016116949061305e565b60405180910390fd5b80600560008573ffffffffffffffffffffffffffffffffffffffff1673ffffffffffffffffffffffffffffffffffffffff16815260200190815260200160002060008473ffffffffffffffffffffffffffffffffffffffff1673ffffffffffffffffffffffffffffffffffffffff16815260200190815260200160002060006101000a81548160ff0219169083151502179055508173ffffffffffffffffffffffffffffffffffffffff168373ffffffffffffffffffffffffffffffffffffffff167f17307eab39ab6107e8899845ad3d59bd9653f200f220920489ca2b5937696c318360405161178e919061203d565b60405180910390a3505050565b6117a6848484611301565b6117b2848484846118ef565b6117f1576040517f08c379a00000000000000000000000000000000000000000000000000000000081526004016117e8906130f0565b60405180910390fd5b50505050565b606060405180602001604052806000815250905090565b6060611819826110f6565b611858576040517f08c379a000000000000000000000000000000000000000000000000000000000815260040161184f90613182565b60405180910390fd5b60006118626117f7565b9050600081511161188257604051806020016040528060008152506118ad565b8061188c84611a77565b60405160200161189d929190612c5b565b6040516020818303038152906040525b915050919050565b60006118c16008611bd8565b90506118cd3382611be6565b6118d78183611c04565b6118e16008611c78565b5050565b505050565b505050565b60006119108473ffffffffffffffffffffffffffffffffffffffff16611c8e565b15611a6a578373ffffffffffffffffffffffffffffffffffffffff1663150b7a02611939611162565b8786866040518563ffffffff1660e01b815260040161195b94939291906131f7565b6020604051808303816000875af192505050801561199757506040513d601f19601f820116820180604052508101906119949190613258565b60015b611a1a573d80600081146119c7576040519150601f19603f3d011682016040523d82523d6000602084013e6119cc565b606091505b50600081511415611a12576040517f08c379a0000000000000000000000000000000000000000000000000000000008152600401611a09906130f0565b60405180910390fd5b805181602001fd5b63150b7a0260e01b7bffffffffffffffffffffffffffffffffffffffffffffffffffffffff1916817bffffffffffffffffffffffffffffffffffffffffffffffffffffffff191614915050611a6f565b600190505b949350505050565b60606000821415611abf576040518060400160405280600181526020017f30000000000000000000000000000000000000000000000000000000000000008152509050611bd3565b600082905060005b60008214611af1578080611ada90613285565b915050600a82611aea91906132fd565b9150611ac7565b60008167ffffffffffffffff811115611b0d57611b0c61235e565b5b6040519080825280601f01601f191660200182016040528015611b3f5781602001600182028036833780820191505090505b5090505b60008514611bcc57600182611b589190612f88565b9150600a85611b67919061332e565b6030611b739190612fbc565b60f81b818381518110611b8957611b8861335f565b5b60200101907effffffffffffffffffffffffffffffffffffffffffffffffffffffffffffff1916908160001a905350600a85611bc591906132fd565b9450611b43565b8093505050505b919050565b600081600001549050919050565b611c00828260405180602001604052806000815250611cb1565b5050565b611c0d826110f6565b611c4c576040517f08c379a0000000000000000000000000000000000000000000000000000000008152600401611c4390613400565b60405180910390fd5b80600660008481526020019081526020016000209080519060200190611c73929190611ee6565b505050565b6001816000016000828254019250508190555050565b6000808273ffffffffffffffffffffffffffffffffffffffff163b119050919050565b611cbb8383611d0c565b611cc860008484846118ef565b611d07576040517f08c379a0000000000000000000000000000000000000000000000000000000008152600401611cfe906130f0565b60405180910390fd5b505050565b600073ffffffffffffffffffffffffffffffffffffffff168273ffffffffffffffffffffffffffffffffffffffff161415611d7c576040517f08c379a0000000000000000000000000000000000000000000000000000000008152600401611d739061346c565b60405180910390fd5b611d85816110f6565b15611dc5576040517f08c379a0000000000000000000000000000000000000000000000000000000008152600401611dbc906134d8565b60405180910390fd5b611dd1600083836118e5565b6001600360008473ffffffffffffffffffffffffffffffffffffffff1673ffffffffffffffffffffffffffffffffffffffff1681526020019081526020016000206000828254611e219190612fbc565b92505081905550816002600083815260200190815260200160002060006101000a81548173ffffffffffffffffffffffffffffffffffffffff021916908373ffffffffffffffffffffffffffffffffffffffff160217905550808273ffffffffffffffffffffffffffffffffffffffff16600073ffffffffffffffffffffffffffffffffffffffff167fddf252ad1be2c89b69c2b068fc378daa952ba7f163c4a11628f55a4df523b3ef60405160405180910390a4611ee2600083836118ea565b5050565b828054611ef290612665565b90600052602060002090601f016020900481019282611f145760008555611f5b565b82601f10611f2d57805160ff1916838001178555611f5b565b82800160010185558215611f5b579182015b82811115611f5a578251825591602001919060010190611f3f565b5b509050611f689190611f6c565b5090565b5b80821115611f85576000816000905550600101611f6d565b5090565b6000604051905090565b600080fd5b600080fd5b60007fffffffff0000000000000000000000000000000000000000000000000000000082169050919050565b611fd281611f9d565b8114611fdd57600080fd5b50565b600081359050611fef81611fc9565b92915050565b60006020828403121561200b5761200a611f93565b5b600061201984828501611fe0565b91505092915050565b60008115159050919050565b61203781612022565b82525050565b6000602082019050612052600083018461202e565b92915050565b600081519050919050565b600082825260208201905092915050565b60005b83811015612092578082015181840152602081019050612077565b838111156120a1576000848401525b50505050565b6000601f19601f8301169050919050565b60006120c382612058565b6120cd8185612063565b93506120dd818560208601612074565b6120e6816120a7565b840191505092915050565b6000602082019050818103600083015261210b81846120b8565b905092915050565b6000819050919050565b61212681612113565b811461213157600080fd5b50565b6000813590506121438161211d565b92915050565b60006020828403121561215f5761215e611f93565b5b600061216d84828501612134565b91505092915050565b600073ffffffffffffffffffffffffffffffffffffffff82169050919050565b60006121a182612176565b9050919050565b6121b181612196565b82525050565b60006020820190506121cc60008301846121a8565b92915050565b6121db81612196565b81146121e657600080fd5b50565b6000813590506121f8816121d2565b92915050565b6000806040838503121561221557612214611f93565b5b6000612223858286016121e9565b925050602061223485828601612134565b9150509250929050565b60008060006060848603121561225757612256611f93565b5b6000612265868287016121e9565b9350506020612276868287016121e9565b925050604061228786828701612134565b9150509250925092565b6000602082840312156122a7576122a6611f93565b5b60006122b5848285016121e9565b91505092915050565b6122c781612113565b82525050565b60006020820190506122e260008301846122be565b92915050565b6122f181612022565b81146122fc57600080fd5b50565b60008135905061230e816122e8565b92915050565b6000806040838503121561232b5761232a611f93565b5b6000612339858286016121e9565b925050602061234a858286016122ff565b9150509250929050565b600080fd5b600080fd5b7f4e487b7100000000000000000000000000000000000000000000000000000000600052604160045260246000fd5b612396826120a7565b810181811067ffffffffffffffff821117156123b5576123b461235e565b5b80604052505050565b60006123c8611f89565b90506123d4828261238d565b919050565b600067ffffffffffffffff8211156123f4576123f361235e565b5b6123fd826120a7565b9050602081019050919050565b82818337600083830152505050565b600061242c612427846123d9565b6123be565b90508281526020810184848401111561244857612447612359565b5b61245384828561240a565b509392505050565b600082601f8301126124705761246f612354565b5b8135612480848260208601612419565b91505092915050565b600080600080608085870312156124a3576124a2611f93565b5b60006124b1878288016121e9565b94505060206124c2878288016121e9565b93505060406124d387828801612134565b925050606085013567ffffffffffffffff8111156124f4576124f3611f98565b5b6125008782880161245b565b91505092959194509250565b600067ffffffffffffffff8211156125275761252661235e565b5b612530826120a7565b9050602081019050919050565b600061255061254b8461250c565b6123be565b90508281526020810184848401111561256c5761256b612359565b5b61257784828561240a565b509392505050565b600082601f83011261259457612593612354565b5b81356125a484826020860161253d565b91505092915050565b6000602082840312156125c3576125c2611f93565b5b600082013567ffffffffffffffff8111156125e1576125e0611f98565b5b6125ed8482850161257f565b91505092915050565b6000806040838503121561260d5761260c611f93565b5b600061261b858286016121e9565b925050602061262c858286016121e9565b9150509250929050565b7f4e487b7100000000000000000000000000000000000000000000000000000000600052602260045260246000fd5b6000600282049050600182168061267d57607f821691505b6020821081141561269157612690612636565b5b50919050565b7f4552433732313a20617070726f76656420717565727920666f72206e6f6e657860008201527f697374656e7420746f6b656e0000000000000000000000000000000000000000602082015250565b60006126f3602c83612063565b91506126fe82612697565b604082019050919050565b60006020820190508181036000830152612722816126e6565b9050919050565b7f4552433732313a20617070726f76616c20746f2063757272656e74206f776e6560008201527f7200000000000000000000000000000000000000000000000000000000000000602082015250565b6000612785602183612063565b915061279082612729565b604082019050919050565b600060208201905081810360008301526127b481612778565b9050919050565b7f4552433732313a20617070726f76652063616c6c6572206973206e6f74206f7760008201527f6e6572206e6f7220617070726f76656420666f7220616c6c0000000000000000602082015250565b6000612817603883612063565b9150612822826127bb565b604082019050919050565b600060208201905081810360008301526128468161280a565b9050919050565b7f4552433732313a207472616e736665722063616c6c6572206973206e6f74206f60008201527f776e6572206e6f7220617070726f766564000000000000000000000000000000602082015250565b60006128a9603183612063565b91506128b48261284d565b604082019050919050565b600060208201905081810360008301526128d88161289c565b9050919050565b7f4f776e61626c653a2063616c6c6572206973206e6f7420746865206f776e6572600082015250565b6000612915602083612063565b9150612920826128df565b602082019050919050565b6000602082019050818103600083015261294481612908565b9050919050565b7f4e6f206574686572206c65667420746f20776974686472617700000000000000600082015250565b6000612981601983612063565b915061298c8261294b565b602082019050919050565b600060208201905081810360008301526129b081612974565b9050919050565b600081905092915050565b50565b60006129d26000836129b7565b91506129dd826129c2565b600082019050919050565b60006129f3826129c5565b9150819050919050565b7f5472616e73666572206661696c65642e00000000000000000000000000000000600082015250565b6000612a33601083612063565b9150612a3e826129fd565b602082019050919050565b60006020820190508181036000830152612a6281612a26565b9050919050565b7f4552433732313a206f776e657220717565727920666f72206e6f6e657869737460008201527f656e7420746f6b656e0000000000000000000000000000000000000000000000602082015250565b6000612ac5602983612063565b9150612ad082612a69565b604082019050919050565b60006020820190508181036000830152612af481612ab8565b9050919050565b7f4552433732313a2062616c616e636520717565727920666f7220746865207a6560008201527f726f206164647265737300000000000000000000000000000000000000000000602082015250565b6000612b57602a83612063565b9150612b6282612afb565b604082019050919050565b60006020820190508181036000830152612b8681612b4a565b9050919050565b7f45524337323155524953746f726167653a2055524920717565727920666f722060008201527f6e6f6e6578697374656e7420746f6b656e000000000000000000000000000000602082015250565b6000612be9603183612063565b9150612bf482612b8d565b604082019050919050565b60006020820190508181036000830152612c1881612bdc565b9050919050565b600081905092915050565b6000612c3582612058565b612c3f8185612c1f565b9350612c4f818560208601612074565b80840191505092915050565b6000612c678285612c2a565b9150612c738284612c2a565b91508190509392505050565b7f4f776e61626c653a206e6577206f776e657220697320746865207a65726f206160008201527f6464726573730000000000000000000000000000000000000000000000000000602082015250565b6000612cdb602683612063565b9150612ce682612c7f565b604082019050919050565b60006020820190508181036000830152612d0a81612cce565b9050919050565b7f4e6f7420656e6f75676820657468657220746f207075726368617365204e465460008201527f732e000000000000000000000000000000000000000000000000000000000000602082015250565b6000612d6d602283612063565b9150612d7882612d11565b604082019050919050565b60006020820190508181036000830152612d9c81612d60565b9050919050565b7f4552433732313a206f70657261746f7220717565727920666f72206e6f6e657860008201527f697374656e7420746f6b656e0000000000000000000000000000000000000000602082015250565b6000612dff602c83612063565b9150612e0a82612da3565b604082019050919050565b60006020820190508181036000830152612e2e81612df2565b9050919050565b7f4552433732313a207472616e736665722066726f6d20696e636f72726563742060008201527f6f776e6572000000000000000000000000000000000000000000000000000000602082015250565b6000612e91602583612063565b9150612e9c82612e35565b604082019050919050565b60006020820190508181036000830152612ec081612e84565b9050919050565b7f4552433732313a207472616e7366657220746f20746865207a65726f2061646460008201527f7265737300000000000000000000000000000000000000000000000000000000602082015250565b6000612f23602483612063565b9150612f2e82612ec7565b604082019050919050565b60006020820190508181036000830152612f5281612f16565b9050919050565b7f4e487b7100000000000000000000000000000000000000000000000000000000600052601160045260246000fd5b6000612f9382612113565b9150612f9e83612113565b925082821015612fb157612fb0612f59565b5b828203905092915050565b6000612fc782612113565b9150612fd283612113565b9250827fffffffffffffffffffffffffffffffffffffffffffffffffffffffffffffffff0382111561300757613006612f59565b5b828201905092915050565b7f4552433732313a20617070726f766520746f2063616c6c657200000000000000600082015250565b6000613048601983612063565b915061305382613012565b602082019050919050565b600060208201905081810360008301526130778161303b565b9050919050565b7f4552433732313a207472616e7366657220746f206e6f6e20455243373231526560008201527f63656976657220696d706c656d656e7465720000000000000000000000000000602082015250565b60006130da603283612063565b91506130e58261307e565b604082019050919050565b60006020820190508181036000830152613109816130cd565b9050919050565b7f4552433732314d657461646174613a2055524920717565727920666f72206e6f60008201527f6e6578697374656e7420746f6b656e0000000000000000000000000000000000602082015250565b600061316c602f83612063565b915061317782613110565b604082019050919050565b6000602082019050818103600083015261319b8161315f565b9050919050565b600081519050919050565b600082825260208201905092915050565b60006131c9826131a2565b6131d381856131ad565b93506131e3818560208601612074565b6131ec816120a7565b840191505092915050565b600060808201905061320c60008301876121a8565b61321960208301866121a8565b61322660408301856122be565b818103606083015261323881846131be565b905095945050505050565b60008151905061325281611fc9565b92915050565b60006020828403121561326e5761326d611f93565b5b600061327c84828501613243565b91505092915050565b600061329082612113565b91507fffffffffffffffffffffffffffffffffffffffffffffffffffffffffffffffff8214156132c3576132c2612f59565b5b600182019050919050565b7f4e487b7100000000000000000000000000000000000000000000000000000000600052601260045260246000fd5b600061330882612113565b915061331383612113565b925082613323576133226132ce565b5b828204905092915050565b600061333982612113565b915061334483612113565b925082613354576133536132ce565b5b828206905092915050565b7f4e487b7100000000000000000000000000000000000000000000000000000000600052603260045260246000fd5b7f45524337323155524953746f726167653a2055524920736574206f66206e6f6e60008201527f6578697374656e7420746f6b656e000000000000000000000000000000000000602082015250565b60006133ea602e83612063565b91506133f58261338e565b604082019050919050565b60006020820190508181036000830152613419816133dd565b9050919050565b7f4552433732313a206d696e7420746f20746865207a65726f2061646472657373600082015250565b6000613456602083612063565b915061346182613420565b602082019050919050565b6000602082019050818103600083015261348581613449565b9050919050565b7f4552433732313a20746f6b656e20616c7265616479206d696e74656400000000600082015250565b60006134c2601c83612063565b91506134cd8261348c565b602082019050919050565b600060208201905081810360008301526134f1816134b5565b905091905056fea26469706673582212207e68666ae02d7d6f3cbebbcb0ab92026b6010da0141e308e676e6fd75382417d64736f6c634300080b0033",
  "linkReferences": {},
  "deployedLinkReferences": {}
}